{
  "abi": [
    {
      "anonymous": false,
      "inputs": [
        {
          "indexed": true,
          "internalType": "address",
          "name": "owner",
          "type": "address"
        },
        {
          "indexed": true,
          "internalType": "address",
          "name": "spender",
          "type": "address"
        },
        {
          "indexed": true,
          "internalType": "uint256",
          "name": "id",
          "type": "uint256"
        }
      ],
      "name": "Approval",
      "type": "event"
    },
    {
      "anonymous": false,
      "inputs": [
        {
          "indexed": true,
          "internalType": "address",
          "name": "owner",
          "type": "address"
        },
        {
          "indexed": true,
          "internalType": "address",
          "name": "operator",
          "type": "address"
        },
        {
          "indexed": false,
          "internalType": "bool",
          "name": "approved",
          "type": "bool"
        }
      ],
      "name": "ApprovalForAll",
      "type": "event"
    },
    {
      "anonymous": false,
      "inputs": [
        {
          "indexed": true,
          "internalType": "address",
          "name": "from",
          "type": "address"
        },
        {
          "indexed": true,
          "internalType": "address",
          "name": "to",
          "type": "address"
        },
        {
          "indexed": true,
          "internalType": "uint256",
          "name": "id",
          "type": "uint256"
        }
      ],
      "name": "Transfer",
      "type": "event"
    },
    {
      "inputs": [
        {
          "internalType": "address",
          "name": "spender",
          "type": "address"
        },
        {
          "internalType": "uint256",
          "name": "id",
          "type": "uint256"
        }
      ],
      "name": "approve",
      "outputs": [],
      "stateMutability": "nonpayable",
      "type": "function"
    },
    {
      "inputs": [
        {
          "internalType": "address",
          "name": "owner",
          "type": "address"
        }
      ],
      "name": "balanceOf",
      "outputs": [
        {
          "internalType": "uint256",
          "name": "",
          "type": "uint256"
        }
      ],
      "stateMutability": "view",
      "type": "function"
    },
    {
      "inputs": [
        {
          "internalType": "uint256",
          "name": "",
          "type": "uint256"
        }
      ],
      "name": "getApproved",
      "outputs": [
        {
          "internalType": "address",
          "name": "",
          "type": "address"
        }
      ],
      "stateMutability": "view",
      "type": "function"
    },
    {
      "inputs": [
        {
          "internalType": "address",
          "name": "",
          "type": "address"
        },
        {
          "internalType": "address",
          "name": "",
          "type": "address"
        }
      ],
      "name": "isApprovedForAll",
      "outputs": [
        {
          "internalType": "bool",
          "name": "",
          "type": "bool"
        }
      ],
      "stateMutability": "view",
      "type": "function"
    },
    {
      "inputs": [],
      "name": "mint",
      "outputs": [
        {
          "internalType": "uint256",
          "name": "",
          "type": "uint256"
        }
      ],
      "stateMutability": "nonpayable",
      "type": "function"
    },
    {
      "inputs": [],
      "name": "name",
      "outputs": [
        {
          "internalType": "string",
          "name": "",
          "type": "string"
        }
      ],
      "stateMutability": "view",
      "type": "function"
    },
    {
      "inputs": [
        {
          "internalType": "uint256",
          "name": "id",
          "type": "uint256"
        }
      ],
      "name": "ownerOf",
      "outputs": [
        {
          "internalType": "address",
          "name": "owner",
          "type": "address"
        }
      ],
      "stateMutability": "view",
      "type": "function"
    },
    {
      "inputs": [
        {
          "internalType": "address",
          "name": "from",
          "type": "address"
        },
        {
          "internalType": "address",
          "name": "to",
          "type": "address"
        },
        {
          "internalType": "uint256",
          "name": "id",
          "type": "uint256"
        }
      ],
      "name": "safeTransferFrom",
      "outputs": [],
      "stateMutability": "nonpayable",
      "type": "function"
    },
    {
      "inputs": [
        {
          "internalType": "address",
          "name": "from",
          "type": "address"
        },
        {
          "internalType": "address",
          "name": "to",
          "type": "address"
        },
        {
          "internalType": "uint256",
          "name": "id",
          "type": "uint256"
        },
        {
          "internalType": "bytes",
          "name": "data",
          "type": "bytes"
        }
      ],
      "name": "safeTransferFrom",
      "outputs": [],
      "stateMutability": "nonpayable",
      "type": "function"
    },
    {
      "inputs": [
        {
          "internalType": "address",
          "name": "operator",
          "type": "address"
        },
        {
          "internalType": "bool",
          "name": "approved",
          "type": "bool"
        }
      ],
      "name": "setApprovalForAll",
      "outputs": [],
      "stateMutability": "nonpayable",
      "type": "function"
    },
    {
      "inputs": [
        {
          "internalType": "bytes4",
          "name": "interfaceId",
          "type": "bytes4"
        }
      ],
      "name": "supportsInterface",
      "outputs": [
        {
          "internalType": "bool",
          "name": "",
          "type": "bool"
        }
      ],
      "stateMutability": "view",
      "type": "function"
    },
    {
      "inputs": [],
      "name": "symbol",
      "outputs": [
        {
          "internalType": "string",
          "name": "",
          "type": "string"
        }
      ],
      "stateMutability": "view",
      "type": "function"
    },
    {
      "inputs": [],
      "name": "tokenId",
      "outputs": [
        {
          "internalType": "uint256",
          "name": "",
          "type": "uint256"
        }
      ],
      "stateMutability": "view",
      "type": "function"
    },
    {
      "inputs": [
        {
          "internalType": "uint256",
          "name": "",
          "type": "uint256"
        }
      ],
      "name": "tokenURI",
      "outputs": [
        {
          "internalType": "string",
          "name": "",
          "type": "string"
        }
      ],
      "stateMutability": "pure",
      "type": "function"
    },
    {
      "inputs": [
        {
          "internalType": "address",
          "name": "from",
          "type": "address"
        },
        {
          "internalType": "address",
          "name": "to",
          "type": "address"
        },
        {
          "internalType": "uint256",
          "name": "id",
          "type": "uint256"
        }
      ],
      "name": "transferFrom",
      "outputs": [],
      "stateMutability": "nonpayable",
      "type": "function"
    }
  ],
  "bytecode": {
    "object": "0x608060405260016006553480156200001657600080fd5b50604080518082018252600881526715195cdd0813919560c21b602080830191825283518085019094526004845263151154d560e21b908401528151919291620000639160009162000082565b5080516200007990600190602084019062000082565b50505062000165565b828054620000909062000128565b90600052602060002090601f016020900481019282620000b45760008555620000ff565b82601f10620000cf57805160ff1916838001178555620000ff565b82800160010185558215620000ff579182015b82811115620000ff578251825591602001919060010190620000e2565b506200010d92915062000111565b5090565b5b808211156200010d576000815560010162000112565b600181811c908216806200013d57607f821691505b602082108114156200015f57634e487b7160e01b600052602260045260246000fd5b50919050565b610e3680620001756000396000f3fe608060405234801561001057600080fd5b50600436106100f55760003560e01c806342842e0e11610097578063a22cb46511610066578063a22cb46514610200578063b88d4fde14610213578063c87b56dd14610226578063e985e9c51461023957600080fd5b806342842e0e146101bf5780636352211e146101d257806370a08231146101e557806395d89b41146101f857600080fd5b8063095ea7b3116100d3578063095ea7b3146101785780631249c58b1461018d57806317d70f7c146101a357806323b872dd146101ac57600080fd5b806301ffc9a7146100fa57806306fdde0314610122578063081812fc14610137575b600080fd5b61010d610108366004610a74565b610267565b60405190151581526020015b60405180910390f35b61012a6102b9565b6040516101199190610a98565b610160610145366004610aed565b6004602052600090815260409020546001600160a01b031681565b6040516001600160a01b039091168152602001610119565b61018b610186366004610b1d565b610347565b005b61019561042e565b604051908152602001610119565b61019560065481565b61018b6101ba366004610b47565b610455565b61018b6101cd366004610b47565b61061c565b6101606101e0366004610aed565b610714565b6101956101f3366004610b83565b61076b565b61012a6107ce565b61018b61020e366004610b9e565b6107db565b61018b610221366004610bda565b610847565b61012a610234366004610aed565b61092f565b61010d610247366004610c75565b600560209081526000928352604080842090915290825290205460ff1681565b60006301ffc9a760e01b6001600160e01b03198316148061029857506380ac58cd60e01b6001600160e01b03198316145b806102b35750635b5e139f60e01b6001600160e01b03198316145b92915050565b600080546102c690610ca8565b80601f01602080910402602001604051908101604052809291908181526020018280546102f290610ca8565b801561033f5780601f106103145761010080835404028352916020019161033f565b820191906000526020600020905b81548152906001019060200180831161032257829003601f168201915b505050505081565b6000818152600260205260409020546001600160a01b03163381148061039057506001600160a01b038116600090815260056020908152604080832033845290915290205460ff165b6103d25760405162461bcd60e51b815260206004820152600e60248201526d1393d517d055551213d49256915160921b60448201526064015b60405180910390fd5b60008281526004602052604080822080546001600160a01b0319166001600160a01b0387811691821790925591518593918516917f8c5be1e5ebec7d5bd14f71427d1e84f3dd0314c0f7b2291e5b200ac8c7c3b92591a4505050565b600061043c33600654610950565b6006805490600061044c83610ce3565b91905055905090565b6000818152600260205260409020546001600160a01b038481169116146104ab5760405162461bcd60e51b815260206004820152600a60248201526957524f4e475f46524f4d60b01b60448201526064016103c9565b6001600160a01b0382166104f55760405162461bcd60e51b81526020600482015260116024820152701253959053125117d49150d25412515395607a1b60448201526064016103c9565b336001600160a01b038416148061052f57506001600160a01b038316600090815260056020908152604080832033845290915290205460ff165b8061055057506000818152600460205260409020546001600160a01b031633145b61058d5760405162461bcd60e51b815260206004820152600e60248201526d1393d517d055551213d49256915160921b60448201526064016103c9565b6001600160a01b0380841660008181526003602090815260408083208054600019019055938616808352848320805460010190558583526002825284832080546001600160a01b03199081168317909155600490925284832080549092169091559251849392917fddf252ad1be2c89b69c2b068fc378daa952ba7f163c4a11628f55a4df523b3ef91a4505050565b610627838383610455565b6001600160a01b0382163b15806106d05750604051630a85bd0160e11b8082523360048301526001600160a01b03858116602484015260448301849052608060648401526000608484015290919084169063150b7a029060a4016020604051808303816000875af11580156106a0573d6000803e3d6000fd5b505050506040513d601f19601f820116820180604052508101906106c49190610d0c565b6001600160e01b031916145b61070f5760405162461bcd60e51b815260206004820152601060248201526f155394d0519157d49150d2541251539560821b60448201526064016103c9565b505050565b6000818152600260205260409020546001600160a01b0316806107665760405162461bcd60e51b815260206004820152600a6024820152691393d517d3525395115160b21b60448201526064016103c9565b919050565b60006001600160a01b0382166107b25760405162461bcd60e51b815260206004820152600c60248201526b5a45524f5f4144445245535360a01b60448201526064016103c9565b506001600160a01b031660009081526003602052604090205490565b600180546102c690610ca8565b3360008181526005602090815260408083206001600160a01b03871680855290835292819020805460ff191686151590811790915590519081529192917f17307eab39ab6107e8899845ad3d59bd9653f200f220920489ca2b5937696c31910160405180910390a35050565b610852858585610455565b6001600160a01b0384163b15806108e95750604051630a85bd0160e11b808252906001600160a01b0386169063150b7a029061089a9033908a90899089908990600401610d29565b6020604051808303816000875af11580156108b9573d6000803e3d6000fd5b505050506040513d601f19601f820116820180604052508101906108dd9190610d0c565b6001600160e01b031916145b6109285760405162461bcd60e51b815260206004820152601060248201526f155394d0519157d49150d2541251539560821b60448201526064016103c9565b5050505050565b60606040518060c0016040528060838152602001610d7e6083913992915050565b6001600160a01b03821661099a5760405162461bcd60e51b81526020600482015260116024820152701253959053125117d49150d25412515395607a1b60448201526064016103c9565b6000818152600260205260409020546001600160a01b0316156109f05760405162461bcd60e51b815260206004820152600e60248201526d1053149150511657d3525395115160921b60448201526064016103c9565b6001600160a01b038216600081815260036020908152604080832080546001019055848352600290915280822080546001600160a01b0319168417905551839291907fddf252ad1be2c89b69c2b068fc378daa952ba7f163c4a11628f55a4df523b3ef908290a45050565b6001600160e01b031981168114610a7157600080fd5b50565b600060208284031215610a8657600080fd5b8135610a9181610a5b565b9392505050565b600060208083528351808285015260005b81811015610ac557858101830151858201604001528201610aa9565b81811115610ad7576000604083870101525b50601f01601f1916929092016040019392505050565b600060208284031215610aff57600080fd5b5035919050565b80356001600160a01b038116811461076657600080fd5b60008060408385031215610b3057600080fd5b610b3983610b06565b946020939093013593505050565b600080600060608486031215610b5c57600080fd5b610b6584610b06565b9250610b7360208501610b06565b9150604084013590509250925092565b600060208284031215610b9557600080fd5b610a9182610b06565b60008060408385031215610bb157600080fd5b610bba83610b06565b915060208301358015158114610bcf57600080fd5b809150509250929050565b600080600080600060808688031215610bf257600080fd5b610bfb86610b06565b9450610c0960208701610b06565b935060408601359250606086013567ffffffffffffffff80821115610c2d57600080fd5b818801915088601f830112610c4157600080fd5b813581811115610c5057600080fd5b896020828501011115610c6257600080fd5b9699959850939650602001949392505050565b60008060408385031215610c8857600080fd5b610c9183610b06565b9150610c9f60208401610b06565b90509250929050565b600181811c90821680610cbc57607f821691505b60208210811415610cdd57634e487b7160e01b600052602260045260246000fd5b50919050565b6000600019821415610d0557634e487b7160e01b600052601160045260246000fd5b5060010190565b600060208284031215610d1e57600080fd5b8151610a9181610a5b565b6001600160a01b038681168252851660208201526040810184905260806060820181905281018290526000828460a0840137600060a0848401015260a0601f19601f8501168301019050969550505050505056fe7b226e616d65223a202254657374204e4654222c20226465736372697074696f6e223a2022412054657374204e46542e222c2022696d616765223a202268747470733a2f2f63706d722d69736c616e64732e6f72672f77702d636f6e74656e742f75706c6f6164732f73697465732f342f323031392f30372f746573742e706e67227da2646970667358221220b2a649650e8290ca5011bd50ac7a4a4c9b73f435b0af45c86781468bf69c362764736f6c634300080a0033",
    "linkReferences": {}
  }
}