{
  "abi": [
    {
      "anonymous": false,
      "inputs": [
        {
          "components": [
            {
              "internalType": "contract ERC721[]",
              "name": "nftContracts",
              "type": "address[]"
            },
            {
              "internalType": "uint256[]",
              "name": "tokenIds",
              "type": "uint256[]"
            },
            {
              "internalType": "uint256",
              "name": "tokenSupply",
              "type": "uint256"
            },
            {
              "internalType": "contract NFTShare",
              "name": "tokenContract",
              "type": "address"
            },
            {
              "internalType": "address",
              "name": "creator",
              "type": "address"
            },
            {
              "internalType": "string",
              "name": "name",
              "type": "string"
            }
          ],
          "indexed": false,
          "internalType": "struct Fractron.Vault",
          "name": "vault",
          "type": "tuple"
        }
      ],
      "name": "VaultCreated",
      "type": "event"
    },
    {
      "anonymous": false,
      "inputs": [
        {
          "components": [
            {
              "internalType": "contract ERC721[]",
              "name": "nftContracts",
              "type": "address[]"
            },
            {
              "internalType": "uint256[]",
              "name": "tokenIds",
              "type": "uint256[]"
            },
            {
              "internalType": "uint256",
              "name": "tokenSupply",
              "type": "uint256"
            },
            {
              "internalType": "contract NFTShare",
              "name": "tokenContract",
              "type": "address"
            },
            {
              "internalType": "address",
              "name": "creator",
              "type": "address"
            },
            {
              "internalType": "string",
              "name": "name",
              "type": "string"
            }
          ],
          "indexed": false,
          "internalType": "struct Fractron.Vault",
          "name": "vault",
          "type": "tuple"
        }
      ],
      "name": "VaultDestroyed",
      "type": "event"
    },
    {
      "inputs": [],
      "name": "currentVaultId",
      "outputs": [
        {
          "internalType": "uint256",
          "name": "",
          "type": "uint256"
        }
      ],
      "stateMutability": "view",
      "type": "function"
    },
    {
      "inputs": [],
      "name": "getAllVaults",
      "outputs": [
        {
          "components": [
            {
              "internalType": "contract ERC721[]",
              "name": "nftContracts",
              "type": "address[]"
            },
            {
              "internalType": "uint256[]",
              "name": "tokenIds",
              "type": "uint256[]"
            },
            {
              "internalType": "uint256",
              "name": "tokenSupply",
              "type": "uint256"
            },
            {
              "internalType": "contract NFTShare",
              "name": "tokenContract",
              "type": "address"
            },
            {
              "internalType": "address",
              "name": "creator",
              "type": "address"
            },
            {
              "internalType": "string",
              "name": "name",
              "type": "string"
            }
          ],
          "internalType": "struct Fractron.Vault[]",
          "name": "",
          "type": "tuple[]"
        }
      ],
      "stateMutability": "view",
      "type": "function"
    },
    {
      "inputs": [
        {
          "internalType": "uint256",
          "name": "vaultId",
          "type": "uint256"
        }
      ],
      "name": "getVault",
      "outputs": [
        {
          "components": [
            {
              "internalType": "contract ERC721[]",
              "name": "nftContracts",
              "type": "address[]"
            },
            {
              "internalType": "uint256[]",
              "name": "tokenIds",
              "type": "uint256[]"
            },
            {
              "internalType": "uint256",
              "name": "tokenSupply",
              "type": "uint256"
            },
            {
              "internalType": "contract NFTShare",
              "name": "tokenContract",
              "type": "address"
            },
            {
              "internalType": "address",
              "name": "creator",
              "type": "address"
            },
            {
              "internalType": "string",
              "name": "name",
              "type": "string"
            }
          ],
          "internalType": "struct Fractron.Vault",
          "name": "",
          "type": "tuple"
        }
      ],
      "stateMutability": "view",
      "type": "function"
    },
    {
      "inputs": [
        {
          "internalType": "uint256",
          "name": "vaultId",
          "type": "uint256"
        }
      ],
      "name": "join",
      "outputs": [],
      "stateMutability": "payable",
      "type": "function"
    },
    {
      "inputs": [
        {
          "internalType": "address",
          "name": "",
          "type": "address"
        },
        {
          "internalType": "address",
          "name": "",
          "type": "address"
        },
        {
          "internalType": "uint256",
          "name": "",
          "type": "uint256"
        },
        {
          "internalType": "bytes",
          "name": "",
          "type": "bytes"
        }
      ],
      "name": "onERC721Received",
      "outputs": [
        {
          "internalType": "bytes4",
          "name": "",
          "type": "bytes4"
        }
      ],
      "stateMutability": "payable",
      "type": "function"
    },
    {
      "inputs": [
        {
          "internalType": "contract ERC721[]",
          "name": "nftContracts",
          "type": "address[]"
        },
        {
          "internalType": "uint256[]",
          "name": "tokenIds",
          "type": "uint256[]"
        },
        {
          "internalType": "uint256",
          "name": "supply",
          "type": "uint256"
        },
        {
          "internalType": "string",
          "name": "name",
          "type": "string"
        },
        {
          "internalType": "string",
          "name": "symbol",
          "type": "string"
        }
      ],
      "name": "split",
      "outputs": [
        {
          "internalType": "uint256",
          "name": "",
          "type": "uint256"
        }
      ],
      "stateMutability": "payable",
      "type": "function"
    },
    {
      "inputs": [
        {
          "internalType": "uint256",
          "name": "",
          "type": "uint256"
        }
      ],
      "name": "vaultById",
      "outputs": [
        {
          "internalType": "uint256",
          "name": "tokenSupply",
          "type": "uint256"
        },
        {
          "internalType": "contract NFTShare",
          "name": "tokenContract",
          "type": "address"
        },
        {
          "internalType": "address",
          "name": "creator",
          "type": "address"
        },
        {
          "internalType": "string",
          "name": "name",
          "type": "string"
        }
      ],
      "stateMutability": "view",
      "type": "function"
    }
  ],
  "bytecode": {
    "object": "0x60806040526000805534801561001457600080fd5b506125bc806100246000396000f3fe608060405260043610620000795760003560e01c80639403b63411620000545780639403b634146200010d57806397331bf914620001415780639e9153c21462000168578063d6df9e5d146200018e57600080fd5b8063049878f3146200007e578063150b7a02146200009757806332f19a5c14620000d6575b600080fd5b620000956200008f36600462000f08565b620001a6565b005b620000b8620000a836600462000fcb565b630a85bd0160e11b949350505050565b6040516001600160e01b031990911681526020015b60405180910390f35b348015620000e357600080fd5b50620000fb620000f536600462000f08565b6200054c565b604051620000cd9493929190620010a4565b3480156200011a57600080fd5b50620001326200012c36600462000f08565b62000616565b604051620000cd9190620011e9565b3480156200014e57600080fd5b5062000159620007be565b604051620000cd919062001205565b6200017f62000179366004620012dd565b62000a00565b604051908152602001620000cd565b3480156200019b57600080fd5b506200017f60005481565b60008181526001602090815260408083208151815460e09481028201850190935260c081018381529093919284928491908401828280156200021257602002820191906000526020600020905b81546001600160a01b03168152600190910190602001808311620001f3575b50505050508152602001600182018054806020026020016040519081016040528092919081815260200182805480156200026c57602002820191906000526020600020905b81548152602001906001019080831162000257575b50505091835250506002820154602082015260038201546001600160a01b0390811660408301526004830154166060820152600582018054608090920191620002b590620013ac565b80601f0160208091040260200160405190810160405280929190818152602001828054620002e390620013ac565b8015620003345780601f10620003085761010080835404028352916020019162000334565b820191906000526020600020905b8154815290600101906020018083116200031657829003601f168201915b5050509190925250505060608101519091506001600160a01b0316620003935760405162461bcd60e51b815260206004820152600f60248201526e1d985d5b1d081b9bdd08199bdd5b99608a1b60448201526064015b60405180910390fd5b600082815260016020526040812090620003ae828262000d15565b620003be60018301600062000d15565b6000600283018190556003830180546001600160a01b03199081169091556004840180549091169055620003f790600584019062000d38565b50506060810151604080830151905163079cc67960e41b815233600482015260248101919091526001600160a01b03909116906379cc679090604401600060405180830381600087803b1580156200044e57600080fd5b505af115801562000463573d6000803e3d6000fd5b5050505060005b815151811015620005475781518051829081106200048c576200048c620013e3565b60200260200101516001600160a01b03166323b872dd303385602001518581518110620004bd57620004bd620013e3565b60209081029190910101516040516001600160e01b031960e086901b1681526001600160a01b0393841660048201529290911660248301526044820152606401600060405180830381600087803b1580156200051857600080fd5b505af11580156200052d573d6000803e3d6000fd5b5050505080806200053e90620013f9565b9150506200046a565b505050565b600160205260009081526040902060028101546003820154600483015460058401805493946001600160a01b039384169493909216926200058d90620013ac565b80601f0160208091040260200160405190810160405280929190818152602001828054620005bb90620013ac565b80156200060c5780601f10620005e0576101008083540402835291602001916200060c565b820191906000526020600020905b815481529060010190602001808311620005ee57829003601f168201915b5050505050905084565b6200062062000d77565b6000828152600160209081526040918290208251815460e09381028201840190945260c0810184815290939192849284918401828280156200068c57602002820191906000526020600020905b81546001600160a01b031681526001909101906020018083116200066d575b5050505050815260200160018201805480602002602001604051908101604052809291908181526020018280548015620006e657602002820191906000526020600020905b815481526020019060010190808311620006d1575b50505091835250506002820154602082015260038201546001600160a01b03908116604083015260048301541660608201526005820180546080909201916200072f90620013ac565b80601f01602080910402602001604051908101604052809291908181526020018280546200075d90620013ac565b8015620007ae5780601f106200078257610100808354040283529160200191620007ae565b820191906000526020600020905b8154815290600101906020018083116200079057829003601f168201915b5050505050815250509050919050565b60606000805467ffffffffffffffff811115620007df57620007df62000f38565b6040519080825280602002602001820160405280156200081c57816020015b6200080862000d77565b815260200190600190039081620007fe5790505b50905060005b600054811015620009fa576000818152600160209081526040918290208251815460e09381028201840190945260c0810184815290939192849284918401828280156200089957602002820191906000526020600020905b81546001600160a01b031681526001909101906020018083116200087a575b5050505050815260200160018201805480602002602001604051908101604052809291908181526020018280548015620008f357602002820191906000526020600020905b815481526020019060010190808311620008de575b50505091835250506002820154602082015260038201546001600160a01b03908116604083015260048301541660608201526005820180546080909201916200093c90620013ac565b80601f01602080910402602001604051908101604052809291908181526020018280546200096a90620013ac565b8015620009bb5780601f106200098f57610100808354040283529160200191620009bb565b820191906000526020600020905b8154815290600101906020018083116200099d57829003601f168201915b505050505081525050828281518110620009d957620009d9620013e3565b60200260200101819052508080620009f190620013f9565b91505062000822565b50919050565b600086851462000a435760405162461bcd60e51b815260206004820152600d60248201526c1a5b9d985b1a59081d985d5b1d609a1b60448201526064016200038a565b60008383863360405162000a579062000dbf565b62000a66949392919062001423565b604051809103906000f08015801562000a83573d6000803e3d6000fd5b50905060006040518060c001604052808b8b808060200260200160405190810160405280939291908181526020018383602002808284376000920191909152505050908252506040805160208b810282810182019093528b82529283019290918c918c918291850190849080828437600092019190915250505090825250602081018890526001600160a01b0384166040808301919091523360608301526080909101879052519091507f50489fdde3c8e9ef8c96f6d5efa760d912efe3b0d661909b4673175f9a64d5d99062000b5c908390620011e9565b60405180910390a160008054815260016020908152604090912082518051849362000b8c92849291019062000dcd565b50602082810151805162000ba7926001850192019062000e37565b506040820151600282015560608201516003820180546001600160a01b039283166001600160a01b031991821617909155608084015160048401805491909316911617905560a0820151805162000c0991600584019160209091019062000e75565b5090505060005b8981101562000cf1578a8a8281811062000c2e5762000c2e620013e3565b905060200201602081019062000c4591906200146e565b6001600160a01b03166323b872dd33308c8c8681811062000c6a5762000c6a620013e3565b6040516001600160e01b031960e088901b1681526001600160a01b03958616600482015294909316602485015250602090910201356044820152606401600060405180830381600087803b15801562000cc257600080fd5b505af115801562000cd7573d6000803e3d6000fd5b50505050808062000ce890620013f9565b91505062000c10565b5060008054908062000d0383620013f9565b909155509a9950505050505050505050565b508054600082559060005260206000209081019062000d35919062000ef1565b50565b50805462000d4690620013ac565b6000825580601f1062000d57575050565b601f01602090049060005260206000209081019062000d35919062000ef1565b6040518060c0016040528060608152602001606081526020016000815260200160006001600160a01b0316815260200160006001600160a01b03168152602001606081525090565b6110f8806200148f83390190565b82805482825590600052602060002090810192821562000e25579160200282015b8281111562000e2557825182546001600160a01b0319166001600160a01b0390911617825560209092019160019091019062000dee565b5062000e3392915062000ef1565b5090565b82805482825590600052602060002090810192821562000e25579160200282015b8281111562000e2557825182559160200191906001019062000e58565b82805462000e8390620013ac565b90600052602060002090601f01602090048101928262000ea7576000855562000e25565b82601f1062000ec257805160ff191683800117855562000e25565b8280016001018555821562000e25579182018281111562000e2557825182559160200191906001019062000e58565b5b8082111562000e33576000815560010162000ef2565b60006020828403121562000f1b57600080fd5b5035919050565b6001600160a01b038116811462000d3557600080fd5b634e487b7160e01b600052604160045260246000fd5b600067ffffffffffffffff8084111562000f6c5762000f6c62000f38565b604051601f8501601f19908116603f0116810190828211818310171562000f975762000f9762000f38565b8160405280935085815286868601111562000fb157600080fd5b858560208301376000602087830101525050509392505050565b6000806000806080858703121562000fe257600080fd5b843562000fef8162000f22565b93506020850135620010018162000f22565b925060408501359150606085013567ffffffffffffffff8111156200102557600080fd5b8501601f810187136200103757600080fd5b620010488782356020840162000f4e565b91505092959194509250565b6000815180845260005b818110156200107c576020818501810151868301820152016200105e565b818111156200108f576000602083870101525b50601f01601f19169290920160200192915050565b8481526001600160a01b03848116602083015283166040820152608060608201819052600090620010d89083018462001054565b9695505050505050565b600081518084526020808501945080840160005b838110156200111457815187529582019590820190600101620010f6565b509495945050505050565b805160c080845281519084018190526000916020919082019060e0860190845b81811015620011665783516001600160a01b0316835292840192918401916001016200113f565b505082850151915085810383870152620011818183620010e2565b92505050604083015160408501526060830151620011aa60608601826001600160a01b03169052565b506080830151620011c660808601826001600160a01b03169052565b5060a083015184820360a0860152620011e0828262001054565b95945050505050565b602081526000620011fe60208301846200111f565b9392505050565b6000602080830181845280855180835260408601915060408160051b870101925083870160005b828110156200125e57603f198886030184526200124b8583516200111f565b945092850192908501906001016200122c565b5092979650505050505050565b60008083601f8401126200127e57600080fd5b50813567ffffffffffffffff8111156200129757600080fd5b6020830191508360208260051b8501011115620012b357600080fd5b9250929050565b600082601f830112620012cc57600080fd5b620011fe8383356020850162000f4e565b600080600080600080600060a0888a031215620012f957600080fd5b873567ffffffffffffffff808211156200131257600080fd5b620013208b838c016200126b565b909950975060208a01359150808211156200133a57600080fd5b620013488b838c016200126b565b909750955060408a0135945060608a01359150808211156200136957600080fd5b620013778b838c01620012ba565b935060808a01359150808211156200138e57600080fd5b506200139d8a828b01620012ba565b91505092959891949750929550565b600181811c90821680620013c157607f821691505b60208210811415620009fa57634e487b7160e01b600052602260045260246000fd5b634e487b7160e01b600052603260045260246000fd5b60006000198214156200141c57634e487b7160e01b600052601160045260246000fd5b5060010190565b60808152600062001438608083018762001054565b82810360208401526200144c818762001054565b604084019590955250506001600160a01b039190911660609091015292915050565b6000602082840312156200148157600080fd5b8135620011fe8162000f2256fe60e0604052604051620010f8380380620010f8833981016040819052620000269162000308565b8383601282600090805190602001906200004292919062000195565b5081516200005890600190602085019062000195565b5060ff81166080524660a0526200006e6200008c565b60c052506200008291508290508362000128565b50505050620004a5565b60007f8b73c3c69bb8fe3d512ecc4cf759cc79239f7b179b0ffacaa9a75d522b39400f6000604051620000c09190620003da565b6040805191829003822060208301939093528101919091527fc89efdaa54c0f20c7adf612882df0950f5a951637e0307cdcb4c672f298b8bc660608201524660808201523060a082015260c00160405160208183030381529060405280519060200120905090565b80600260008282546200013c91906200047e565b90915550506001600160a01b0382166000818152600360209081526040808320805486019055518481527fddf252ad1be2c89b69c2b068fc378daa952ba7f163c4a11628f55a4df523b3ef910160405180910390a35050565b828054620001a3906200039d565b90600052602060002090601f016020900481019282620001c7576000855562000212565b82601f10620001e257805160ff191683800117855562000212565b8280016001018555821562000212579182015b8281111562000212578251825591602001919060010190620001f5565b506200022092915062000224565b5090565b5b8082111562000220576000815560010162000225565b634e487b7160e01b600052604160045260246000fd5b600082601f8301126200026357600080fd5b81516001600160401b03808211156200028057620002806200023b565b604051601f8301601f19908116603f01168101908282118183101715620002ab57620002ab6200023b565b81604052838152602092508683858801011115620002c857600080fd5b600091505b83821015620002ec5785820183015181830184015290820190620002cd565b83821115620002fe5760008385830101525b9695505050505050565b600080600080608085870312156200031f57600080fd5b84516001600160401b03808211156200033757600080fd5b620003458883890162000251565b955060208701519150808211156200035c57600080fd5b506200036b8782880162000251565b60408701516060880151919550935090506001600160a01b03811681146200039257600080fd5b939692955090935050565b600181811c90821680620003b257607f821691505b60208210811415620003d457634e487b7160e01b600052602260045260246000fd5b50919050565b600080835481600182811c915080831680620003f757607f831692505b60208084108214156200041857634e487b7160e01b86526022600452602486fd5b8180156200042f5760018114620004415762000470565b60ff1986168952848901965062000470565b60008a81526020902060005b86811015620004685781548b8201529085019083016200044d565b505084890196505b509498975050505050505050565b60008219821115620004a057634e487b7160e01b600052601160045260246000fd5b500190565b60805160a05160c051610c23620004d560003960006104e2015260006104ad015260006101780152610c236000f3fe6080604052600436106100c25760003560e01c806370a082311161007f57806395d89b411161005957806395d89b4114610230578063a9059cbb14610245578063d505accf14610265578063dd62ed3e1461028557600080fd5b806370a08231146101c157806379cc6790146101ee5780637ecebe001461020357600080fd5b806306fdde03146100c7578063095ea7b3146100f257806318160ddd1461012257806323b872dd14610146578063313ce567146101665780633644e515146101ac575b600080fd5b3480156100d357600080fd5b506100dc6102bd565b6040516100e99190610952565b60405180910390f35b3480156100fe57600080fd5b5061011261010d3660046109c3565b61034b565b60405190151581526020016100e9565b34801561012e57600080fd5b5061013860025481565b6040519081526020016100e9565b34801561015257600080fd5b506101126101613660046109ed565b6103b7565b34801561017257600080fd5b5061019a7f000000000000000000000000000000000000000000000000000000000000000081565b60405160ff90911681526020016100e9565b3480156101b857600080fd5b506101386104a9565b3480156101cd57600080fd5b506101386101dc366004610a29565b60036020526000908152604090205481565b6102016101fc3660046109c3565b610504565b005b34801561020f57600080fd5b5061013861021e366004610a29565b60056020526000908152604090205481565b34801561023c57600080fd5b506100dc61056f565b34801561025157600080fd5b506101126102603660046109c3565b61057c565b34801561027157600080fd5b50610201610280366004610a4b565b6105f4565b34801561029157600080fd5b506101386102a0366004610abe565b600460209081526000928352604080842090915290825290205481565b600080546102ca90610af1565b80601f01602080910402602001604051908101604052809291908181526020018280546102f690610af1565b80156103435780601f1061031857610100808354040283529160200191610343565b820191906000526020600020905b81548152906001019060200180831161032657829003601f168201915b505050505081565b3360008181526004602090815260408083206001600160a01b038716808552925280832085905551919290917f8c5be1e5ebec7d5bd14f71427d1e84f3dd0314c0f7b2291e5b200ac8c7c3b925906103a69086815260200190565b60405180910390a350600192915050565b6001600160a01b03831660009081526004602090815260408083203384529091528120546000198114610413576103ee8382610b2c565b6001600160a01b03861660009081526004602090815260408083203384529091529020555b6001600160a01b0385166000908152600360205260408120805485929061043b908490610b2c565b90915550506001600160a01b03808516600081815260036020526040908190208054870190555190918716907fddf252ad1be2c89b69c2b068fc378daa952ba7f163c4a11628f55a4df523b3ef906104969087815260200190565b60405180910390a3506001949350505050565b60007f000000000000000000000000000000000000000000000000000000000000000046146104df576104da61083d565b905090565b507f000000000000000000000000000000000000000000000000000000000000000090565b6001600160a01b038216600090815260046020908152604080832033845290915290205460001981146105605761053b8282610b2c565b6001600160a01b03841660009081526004602090815260408083203384529091529020555b61056a83836108d7565b505050565b600180546102ca90610af1565b3360009081526003602052604081208054839190839061059d908490610b2c565b90915550506001600160a01b038316600081815260036020526040908190208054850190555133907fddf252ad1be2c89b69c2b068fc378daa952ba7f163c4a11628f55a4df523b3ef906103a69086815260200190565b428410156106495760405162461bcd60e51b815260206004820152601760248201527f5045524d49545f444541444c494e455f4558504952454400000000000000000060448201526064015b60405180910390fd5b600060016106556104a9565b6001600160a01b038a811660008181526005602090815260409182902080546001810190915582517f6e71edae12b1b97f4d1f60370fef10105fa2faae0126114a169c64845d6126c98184015280840194909452938d166060840152608083018c905260a083019390935260c08083018b90528151808403909101815260e08301909152805192019190912061190160f01b6101008301526101028201929092526101228101919091526101420160408051601f198184030181528282528051602091820120600084529083018083525260ff871690820152606081018590526080810184905260a0016020604051602081039080840390855afa158015610761573d6000803e3d6000fd5b5050604051601f1901519150506001600160a01b038116158015906107975750876001600160a01b0316816001600160a01b0316145b6107d45760405162461bcd60e51b815260206004820152600e60248201526d24a72b20a624a22fa9a4a3a722a960911b6044820152606401610640565b6001600160a01b0390811660009081526004602090815260408083208a8516808552908352928190208990555188815291928a16917f8c5be1e5ebec7d5bd14f71427d1e84f3dd0314c0f7b2291e5b200ac8c7c3b925910160405180910390a350505050505050565b60007f8b73c3c69bb8fe3d512ecc4cf759cc79239f7b179b0ffacaa9a75d522b39400f600060405161086f9190610b51565b6040805191829003822060208301939093528101919091527fc89efdaa54c0f20c7adf612882df0950f5a951637e0307cdcb4c672f298b8bc660608201524660808201523060a082015260c00160405160208183030381529060405280519060200120905090565b6001600160a01b038216600090815260036020526040812080548392906108ff908490610b2c565b90915550506002805482900390556040518181526000906001600160a01b038416907fddf252ad1be2c89b69c2b068fc378daa952ba7f163c4a11628f55a4df523b3ef9060200160405180910390a35050565b600060208083528351808285015260005b8181101561097f57858101830151858201604001528201610963565b81811115610991576000604083870101525b50601f01601f1916929092016040019392505050565b80356001600160a01b03811681146109be57600080fd5b919050565b600080604083850312156109d657600080fd5b6109df836109a7565b946020939093013593505050565b600080600060608486031215610a0257600080fd5b610a0b846109a7565b9250610a19602085016109a7565b9150604084013590509250925092565b600060208284031215610a3b57600080fd5b610a44826109a7565b9392505050565b600080600080600080600060e0888a031215610a6657600080fd5b610a6f886109a7565b9650610a7d602089016109a7565b95506040880135945060608801359350608088013560ff81168114610aa157600080fd5b9699959850939692959460a0840135945060c09093013592915050565b60008060408385031215610ad157600080fd5b610ada836109a7565b9150610ae8602084016109a7565b90509250929050565b600181811c90821680610b0557607f821691505b60208210811415610b2657634e487b7160e01b600052602260045260246000fd5b50919050565b600082821015610b4c57634e487b7160e01b600052601160045260246000fd5b500390565b600080835481600182811c915080831680610b6d57607f831692505b6020808410821415610b8d57634e487b7160e01b86526022600452602486fd5b818015610ba15760018114610bb257610bdf565b60ff19861689528489019650610bdf565b60008a81526020902060005b86811015610bd75781548b820152908501908301610bbe565b505084890196505b50949897505050505050505056fea264697066735822122080ae339d0757005696f0b9b558cac9015c48671d77f4f5a7ca12030bb9d19f2f64736f6c634300080a0033a26469706673582212205eaf8cd56a8c06eb6950ee99face9c9bacb10ca372f78f7890761a79e6cbf95a64736f6c634300080a0033",
    "linkReferences": {}
  }
}