{
  "abi": [
    {
      "anonymous": false,
      "inputs": [
        {
          "components": [
            {
              "internalType": "contract ERC721[]",
              "name": "nftContracts",
              "type": "address[]"
            },
            {
              "internalType": "uint256[]",
              "name": "tokenIds",
              "type": "uint256[]"
            },
            {
              "internalType": "uint256",
              "name": "tokenSupply",
              "type": "uint256"
            },
            {
              "internalType": "contract NFTShare",
              "name": "tokenContract",
              "type": "address"
            },
            {
              "internalType": "address",
              "name": "creator",
              "type": "address"
            }
          ],
          "indexed": false,
          "internalType": "struct Fractron.Vault",
          "name": "vault",
          "type": "tuple"
        }
      ],
      "name": "VaultCreated",
      "type": "event"
    },
    {
      "anonymous": false,
      "inputs": [
        {
          "components": [
            {
              "internalType": "contract ERC721[]",
              "name": "nftContracts",
              "type": "address[]"
            },
            {
              "internalType": "uint256[]",
              "name": "tokenIds",
              "type": "uint256[]"
            },
            {
              "internalType": "uint256",
              "name": "tokenSupply",
              "type": "uint256"
            },
            {
              "internalType": "contract NFTShare",
              "name": "tokenContract",
              "type": "address"
            },
            {
              "internalType": "address",
              "name": "creator",
              "type": "address"
            }
          ],
          "indexed": false,
          "internalType": "struct Fractron.Vault",
          "name": "vault",
          "type": "tuple"
        }
      ],
      "name": "VaultDestroyed",
      "type": "event"
    },
    {
      "inputs": [],
      "name": "getAllVaults",
      "outputs": [
        {
          "components": [
            {
              "internalType": "contract ERC721[]",
              "name": "nftContracts",
              "type": "address[]"
            },
            {
              "internalType": "uint256[]",
              "name": "tokenIds",
              "type": "uint256[]"
            },
            {
              "internalType": "uint256",
              "name": "tokenSupply",
              "type": "uint256"
            },
            {
              "internalType": "contract NFTShare",
              "name": "tokenContract",
              "type": "address"
            },
            {
              "internalType": "address",
              "name": "creator",
              "type": "address"
            }
          ],
          "internalType": "struct Fractron.Vault[]",
          "name": "",
          "type": "tuple[]"
        }
      ],
      "stateMutability": "view",
      "type": "function"
    },
    {
      "inputs": [
        {
          "internalType": "uint256",
          "name": "vaultId",
          "type": "uint256"
        }
      ],
      "name": "getVault",
      "outputs": [
        {
          "components": [
            {
              "internalType": "contract ERC721[]",
              "name": "nftContracts",
              "type": "address[]"
            },
            {
              "internalType": "uint256[]",
              "name": "tokenIds",
              "type": "uint256[]"
            },
            {
              "internalType": "uint256",
              "name": "tokenSupply",
              "type": "uint256"
            },
            {
              "internalType": "contract NFTShare",
              "name": "tokenContract",
              "type": "address"
            },
            {
              "internalType": "address",
              "name": "creator",
              "type": "address"
            }
          ],
          "internalType": "struct Fractron.Vault",
          "name": "",
          "type": "tuple"
        }
      ],
      "stateMutability": "view",
      "type": "function"
    },
    {
      "inputs": [
        {
          "internalType": "uint256",
          "name": "vaultId",
          "type": "uint256"
        }
      ],
      "name": "join",
      "outputs": [],
      "stateMutability": "payable",
      "type": "function"
    },
    {
      "inputs": [
        {
          "internalType": "address",
          "name": "",
          "type": "address"
        },
        {
          "internalType": "address",
          "name": "",
          "type": "address"
        },
        {
          "internalType": "uint256",
          "name": "",
          "type": "uint256"
        },
        {
          "internalType": "bytes",
          "name": "",
          "type": "bytes"
        }
      ],
      "name": "onERC721Received",
      "outputs": [
        {
          "internalType": "bytes4",
          "name": "",
          "type": "bytes4"
        }
      ],
      "stateMutability": "payable",
      "type": "function"
    },
    {
      "inputs": [
        {
          "internalType": "contract ERC721[]",
          "name": "nftContracts",
          "type": "address[]"
        },
        {
          "internalType": "uint256[]",
          "name": "tokenIds",
          "type": "uint256[]"
        },
        {
          "internalType": "uint256",
          "name": "supply",
          "type": "uint256"
        },
        {
          "internalType": "string",
          "name": "name",
          "type": "string"
        },
        {
          "internalType": "string",
          "name": "symbol",
          "type": "string"
        }
      ],
      "name": "split",
      "outputs": [
        {
          "internalType": "uint256",
          "name": "",
          "type": "uint256"
        }
      ],
      "stateMutability": "payable",
      "type": "function"
    },
    {
      "inputs": [
        {
          "internalType": "uint256",
          "name": "",
          "type": "uint256"
        }
      ],
      "name": "vaultById",
      "outputs": [
        {
          "internalType": "uint256",
          "name": "tokenSupply",
          "type": "uint256"
        },
        {
          "internalType": "contract NFTShare",
          "name": "tokenContract",
          "type": "address"
        },
        {
          "internalType": "address",
          "name": "creator",
          "type": "address"
        }
      ],
      "stateMutability": "view",
      "type": "function"
    }
  ],
  "bytecode": {
    "object": "0x60806040526000805534801561001457600080fd5b50612194806100246000396000f3fe6080604052600436106200005c5760003560e01c8063049878f31462000061578063150b7a02146200007a57806332f19a5c14620000b95780639403b634146200012e57806397331bf914620001625780639e9153c21462000189575b600080fd5b620000786200007236600462000b70565b620001af565b005b6200009b6200008b36600462000c33565b630a85bd0160e11b949350505050565b6040516001600160e01b031990911681526020015b60405180910390f35b348015620000c657600080fd5b5062000108620000d836600462000b70565b60016020526000908152604090206002810154600382015460049092015490916001600160a01b03908116911683565b604080519384526001600160a01b039283166020850152911690820152606001620000b0565b3480156200013b57600080fd5b50620001536200014d36600462000b70565b62000499565b604051620000b0919062000da8565b3480156200016f57600080fd5b506200017a620005a5565b604051620000b0919062000dc4565b620001a06200019a36600462000e9c565b6200074e565b604051908152602001620000b0565b60008181526001602090815260408083208151815460c09481028201850190935260a081018381529093919284928491908401828280156200021b57602002820191906000526020600020905b81546001600160a01b03168152600190910190602001808311620001fc575b50505050508152602001600182018054806020026020016040519081016040528092919081815260200182805480156200027557602002820191906000526020600020905b81548152602001906001019080831162000260575b50505091835250506002820154602082015260038201546001600160a01b039081166040830152600490920154821660609182015282015191925016620002f55760405162461bcd60e51b815260206004820152600f60248201526e1d985d5b1d081b9bdd08199bdd5b99608a1b60448201526064015b60405180910390fd5b60008281526001602052604081209062000310828262000a3f565b6200032060018301600062000a3f565b50600060028201556003810180546001600160a01b03199081169091556004918201805490911690556060820151604080840151905163079cc67960e41b8152339381019390935260248301526001600160a01b0316906379cc679090604401600060405180830381600087803b1580156200039b57600080fd5b505af1158015620003b0573d6000803e3d6000fd5b5050505060005b81515181101562000494578151805182908110620003d957620003d962000f6b565b60200260200101516001600160a01b03166323b872dd3033856020015185815181106200040a576200040a62000f6b565b60209081029190910101516040516001600160e01b031960e086901b1681526001600160a01b0393841660048201529290911660248301526044820152606401600060405180830381600087803b1580156200046557600080fd5b505af11580156200047a573d6000803e3d6000fd5b5050505080806200048b9062000f81565b915050620003b7565b505050565b620004a362000a62565b6000828152600160209081526040918290208251815460c09381028201840190945260a0810184815290939192849284918401828280156200050f57602002820191906000526020600020905b81546001600160a01b03168152600190910190602001808311620004f0575b50505050508152602001600182018054806020026020016040519081016040528092919081815260200182805480156200056957602002820191906000526020600020905b81548152602001906001019080831162000554575b50505091835250506002820154602082015260038201546001600160a01b03908116604083015260049092015490911660609091015292915050565b60606000805467ffffffffffffffff811115620005c657620005c662000ba0565b6040519080825280602002602001820160405280156200060357816020015b620005ef62000a62565b815260200190600190039081620005e55790505b50905060005b60005481101562000748576000818152600160209081526040918290208251815460c09381028201840190945260a0810184815290939192849284918401828280156200068057602002820191906000526020600020905b81546001600160a01b0316815260019091019060200180831162000661575b5050505050815260200160018201805480602002602001604051908101604052809291908181526020018280548015620006da57602002820191906000526020600020905b815481526020019060010190808311620006c5575b50505091835250506002820154602082015260038201546001600160a01b039081166040830152600490920154909116606090910152825183908390811062000727576200072762000f6b565b602002602001018190525080806200073f9062000f81565b91505062000609565b50919050565b6000868514620007915760405162461bcd60e51b815260206004820152600d60248201526c1a5b9d985b1a59081d985d5b1d609a1b6044820152606401620002ec565b600083838633604051620007a59062000aa3565b620007b4949392919062000ffb565b604051809103906000f080158015620007d1573d6000803e3d6000fd5b50905060006040518060a001604052808b8b808060200260200160405190810160405280939291908181526020018383602002808284376000920191909152505050908252506040805160208b810282810182019093528b82529283019290918c918c918291850190849080828437600092019190915250505090825250602081018890526001600160a01b03841660408083019190915233606090920191909152519091507f1ef6962a14609018df3589a38cb8fd2ba5d7615bdb27bd004d08b0e8e081d27e90620008a690839062000da8565b60405180910390a1600080548152600160209081526040909120825180518493620008d692849291019062000ab1565b506020828101518051620008f1926001850192019062000b1b565b506040820151600282015560608201516003820180546001600160a01b03199081166001600160a01b039384161790915560809093015160049092018054909316911617905560005b8981101562000a1b578a8a8281811062000958576200095862000f6b565b90506020020160208101906200096f919062001046565b6001600160a01b03166323b872dd33308c8c8681811062000994576200099462000f6b565b6040516001600160e01b031960e088901b1681526001600160a01b03958616600482015294909316602485015250602090910201356044820152606401600060405180830381600087803b158015620009ec57600080fd5b505af115801562000a01573d6000803e3d6000fd5b50505050808062000a129062000f81565b9150506200093a565b5060008054908062000a2d8362000f81565b909155509a9950505050505050505050565b508054600082559060005260206000209081019062000a5f919062000b59565b50565b6040518060a0016040528060608152602001606081526020016000815260200160006001600160a01b0316815260200160006001600160a01b031681525090565b6110f8806200106783390190565b82805482825590600052602060002090810192821562000b09579160200282015b8281111562000b0957825182546001600160a01b0319166001600160a01b0390911617825560209092019160019091019062000ad2565b5062000b1792915062000b59565b5090565b82805482825590600052602060002090810192821562000b09579160200282015b8281111562000b0957825182559160200191906001019062000b3c565b5b8082111562000b17576000815560010162000b5a565b60006020828403121562000b8357600080fd5b5035919050565b6001600160a01b038116811462000a5f57600080fd5b634e487b7160e01b600052604160045260246000fd5b600067ffffffffffffffff8084111562000bd45762000bd462000ba0565b604051601f8501601f19908116603f0116810190828211818310171562000bff5762000bff62000ba0565b8160405280935085815286868601111562000c1957600080fd5b858560208301376000602087830101525050509392505050565b6000806000806080858703121562000c4a57600080fd5b843562000c578162000b8a565b9350602085013562000c698162000b8a565b925060408501359150606085013567ffffffffffffffff81111562000c8d57600080fd5b8501601f8101871362000c9f57600080fd5b62000cb08782356020840162000bb6565b91505092959194509250565b600081518084526020808501945080840160005b8381101562000cee5781518752958201959082019060010162000cd0565b509495945050505050565b805160a080845281519084018190526000916020919082019060c0860190845b8181101562000d405783516001600160a01b03168352928401929184019160010162000d19565b50508285015191508581038387015262000d5b818362000cbc565b9250505060408301516040850152606083015162000d8460608601826001600160a01b03169052565b50608083015162000da060808601826001600160a01b03169052565b509392505050565b60208152600062000dbd602083018462000cf9565b9392505050565b6000602080830181845280855180835260408601915060408160051b870101925083870160005b8281101562000e1d57603f1988860301845262000e0a85835162000cf9565b9450928501929085019060010162000deb565b5092979650505050505050565b60008083601f84011262000e3d57600080fd5b50813567ffffffffffffffff81111562000e5657600080fd5b6020830191508360208260051b850101111562000e7257600080fd5b9250929050565b600082601f83011262000e8b57600080fd5b62000dbd8383356020850162000bb6565b600080600080600080600060a0888a03121562000eb857600080fd5b873567ffffffffffffffff8082111562000ed157600080fd5b62000edf8b838c0162000e2a565b909950975060208a013591508082111562000ef957600080fd5b62000f078b838c0162000e2a565b909750955060408a0135945060608a013591508082111562000f2857600080fd5b62000f368b838c0162000e79565b935060808a013591508082111562000f4d57600080fd5b5062000f5c8a828b0162000e79565b91505092959891949750929550565b634e487b7160e01b600052603260045260246000fd5b600060001982141562000fa457634e487b7160e01b600052601160045260246000fd5b5060010190565b6000815180845260005b8181101562000fd35760208185018101518683018201520162000fb5565b8181111562000fe6576000602083870101525b50601f01601f19169290920160200192915050565b60808152600062001010608083018762000fab565b828103602084015262001024818762000fab565b604084019590955250506001600160a01b039190911660609091015292915050565b6000602082840312156200105957600080fd5b813562000dbd8162000b8a56fe60e0604052604051620010f8380380620010f8833981016040819052620000269162000308565b8383601282600090805190602001906200004292919062000195565b5081516200005890600190602085019062000195565b5060ff81166080524660a0526200006e6200008c565b60c052506200008291508290508362000128565b50505050620004a5565b60007f8b73c3c69bb8fe3d512ecc4cf759cc79239f7b179b0ffacaa9a75d522b39400f6000604051620000c09190620003da565b6040805191829003822060208301939093528101919091527fc89efdaa54c0f20c7adf612882df0950f5a951637e0307cdcb4c672f298b8bc660608201524660808201523060a082015260c00160405160208183030381529060405280519060200120905090565b80600260008282546200013c91906200047e565b90915550506001600160a01b0382166000818152600360209081526040808320805486019055518481527fddf252ad1be2c89b69c2b068fc378daa952ba7f163c4a11628f55a4df523b3ef910160405180910390a35050565b828054620001a3906200039d565b90600052602060002090601f016020900481019282620001c7576000855562000212565b82601f10620001e257805160ff191683800117855562000212565b8280016001018555821562000212579182015b8281111562000212578251825591602001919060010190620001f5565b506200022092915062000224565b5090565b5b8082111562000220576000815560010162000225565b634e487b7160e01b600052604160045260246000fd5b600082601f8301126200026357600080fd5b81516001600160401b03808211156200028057620002806200023b565b604051601f8301601f19908116603f01168101908282118183101715620002ab57620002ab6200023b565b81604052838152602092508683858801011115620002c857600080fd5b600091505b83821015620002ec5785820183015181830184015290820190620002cd565b83821115620002fe5760008385830101525b9695505050505050565b600080600080608085870312156200031f57600080fd5b84516001600160401b03808211156200033757600080fd5b620003458883890162000251565b955060208701519150808211156200035c57600080fd5b506200036b8782880162000251565b60408701516060880151919550935090506001600160a01b03811681146200039257600080fd5b939692955090935050565b600181811c90821680620003b257607f821691505b60208210811415620003d457634e487b7160e01b600052602260045260246000fd5b50919050565b600080835481600182811c915080831680620003f757607f831692505b60208084108214156200041857634e487b7160e01b86526022600452602486fd5b8180156200042f5760018114620004415762000470565b60ff1986168952848901965062000470565b60008a81526020902060005b86811015620004685781548b8201529085019083016200044d565b505084890196505b509498975050505050505050565b60008219821115620004a057634e487b7160e01b600052601160045260246000fd5b500190565b60805160a05160c051610c23620004d560003960006104e2015260006104ad015260006101780152610c236000f3fe6080604052600436106100c25760003560e01c806370a082311161007f57806395d89b411161005957806395d89b4114610230578063a9059cbb14610245578063d505accf14610265578063dd62ed3e1461028557600080fd5b806370a08231146101c157806379cc6790146101ee5780637ecebe001461020357600080fd5b806306fdde03146100c7578063095ea7b3146100f257806318160ddd1461012257806323b872dd14610146578063313ce567146101665780633644e515146101ac575b600080fd5b3480156100d357600080fd5b506100dc6102bd565b6040516100e99190610952565b60405180910390f35b3480156100fe57600080fd5b5061011261010d3660046109c3565b61034b565b60405190151581526020016100e9565b34801561012e57600080fd5b5061013860025481565b6040519081526020016100e9565b34801561015257600080fd5b506101126101613660046109ed565b6103b7565b34801561017257600080fd5b5061019a7f000000000000000000000000000000000000000000000000000000000000000081565b60405160ff90911681526020016100e9565b3480156101b857600080fd5b506101386104a9565b3480156101cd57600080fd5b506101386101dc366004610a29565b60036020526000908152604090205481565b6102016101fc3660046109c3565b610504565b005b34801561020f57600080fd5b5061013861021e366004610a29565b60056020526000908152604090205481565b34801561023c57600080fd5b506100dc61056f565b34801561025157600080fd5b506101126102603660046109c3565b61057c565b34801561027157600080fd5b50610201610280366004610a4b565b6105f4565b34801561029157600080fd5b506101386102a0366004610abe565b600460209081526000928352604080842090915290825290205481565b600080546102ca90610af1565b80601f01602080910402602001604051908101604052809291908181526020018280546102f690610af1565b80156103435780601f1061031857610100808354040283529160200191610343565b820191906000526020600020905b81548152906001019060200180831161032657829003601f168201915b505050505081565b3360008181526004602090815260408083206001600160a01b038716808552925280832085905551919290917f8c5be1e5ebec7d5bd14f71427d1e84f3dd0314c0f7b2291e5b200ac8c7c3b925906103a69086815260200190565b60405180910390a350600192915050565b6001600160a01b03831660009081526004602090815260408083203384529091528120546000198114610413576103ee8382610b2c565b6001600160a01b03861660009081526004602090815260408083203384529091529020555b6001600160a01b0385166000908152600360205260408120805485929061043b908490610b2c565b90915550506001600160a01b03808516600081815260036020526040908190208054870190555190918716907fddf252ad1be2c89b69c2b068fc378daa952ba7f163c4a11628f55a4df523b3ef906104969087815260200190565b60405180910390a3506001949350505050565b60007f000000000000000000000000000000000000000000000000000000000000000046146104df576104da61083d565b905090565b507f000000000000000000000000000000000000000000000000000000000000000090565b6001600160a01b038216600090815260046020908152604080832033845290915290205460001981146105605761053b8282610b2c565b6001600160a01b03841660009081526004602090815260408083203384529091529020555b61056a83836108d7565b505050565b600180546102ca90610af1565b3360009081526003602052604081208054839190839061059d908490610b2c565b90915550506001600160a01b038316600081815260036020526040908190208054850190555133907fddf252ad1be2c89b69c2b068fc378daa952ba7f163c4a11628f55a4df523b3ef906103a69086815260200190565b428410156106495760405162461bcd60e51b815260206004820152601760248201527f5045524d49545f444541444c494e455f4558504952454400000000000000000060448201526064015b60405180910390fd5b600060016106556104a9565b6001600160a01b038a811660008181526005602090815260409182902080546001810190915582517f6e71edae12b1b97f4d1f60370fef10105fa2faae0126114a169c64845d6126c98184015280840194909452938d166060840152608083018c905260a083019390935260c08083018b90528151808403909101815260e08301909152805192019190912061190160f01b6101008301526101028201929092526101228101919091526101420160408051601f198184030181528282528051602091820120600084529083018083525260ff871690820152606081018590526080810184905260a0016020604051602081039080840390855afa158015610761573d6000803e3d6000fd5b5050604051601f1901519150506001600160a01b038116158015906107975750876001600160a01b0316816001600160a01b0316145b6107d45760405162461bcd60e51b815260206004820152600e60248201526d24a72b20a624a22fa9a4a3a722a960911b6044820152606401610640565b6001600160a01b0390811660009081526004602090815260408083208a8516808552908352928190208990555188815291928a16917f8c5be1e5ebec7d5bd14f71427d1e84f3dd0314c0f7b2291e5b200ac8c7c3b925910160405180910390a350505050505050565b60007f8b73c3c69bb8fe3d512ecc4cf759cc79239f7b179b0ffacaa9a75d522b39400f600060405161086f9190610b51565b6040805191829003822060208301939093528101919091527fc89efdaa54c0f20c7adf612882df0950f5a951637e0307cdcb4c672f298b8bc660608201524660808201523060a082015260c00160405160208183030381529060405280519060200120905090565b6001600160a01b038216600090815260036020526040812080548392906108ff908490610b2c565b90915550506002805482900390556040518181526000906001600160a01b038416907fddf252ad1be2c89b69c2b068fc378daa952ba7f163c4a11628f55a4df523b3ef9060200160405180910390a35050565b600060208083528351808285015260005b8181101561097f57858101830151858201604001528201610963565b81811115610991576000604083870101525b50601f01601f1916929092016040019392505050565b80356001600160a01b03811681146109be57600080fd5b919050565b600080604083850312156109d657600080fd5b6109df836109a7565b946020939093013593505050565b600080600060608486031215610a0257600080fd5b610a0b846109a7565b9250610a19602085016109a7565b9150604084013590509250925092565b600060208284031215610a3b57600080fd5b610a44826109a7565b9392505050565b600080600080600080600060e0888a031215610a6657600080fd5b610a6f886109a7565b9650610a7d602089016109a7565b95506040880135945060608801359350608088013560ff81168114610aa157600080fd5b9699959850939692959460a0840135945060c09093013592915050565b60008060408385031215610ad157600080fd5b610ada836109a7565b9150610ae8602084016109a7565b90509250929050565b600181811c90821680610b0557607f821691505b60208210811415610b2657634e487b7160e01b600052602260045260246000fd5b50919050565b600082821015610b4c57634e487b7160e01b600052601160045260246000fd5b500390565b600080835481600182811c915080831680610b6d57607f831692505b6020808410821415610b8d57634e487b7160e01b86526022600452602486fd5b818015610ba15760018114610bb257610bdf565b60ff19861689528489019650610bdf565b60008a81526020902060005b86811015610bd75781548b820152908501908301610bbe565b505084890196505b50949897505050505050505056fea26469706673582212205f2490a65fff959f68f4de70c042060201403b44def2c71e8819bec7fa2e0d3e64736f6c634300080a0033a26469706673582212201f00d2de0420dfaafa1d1502d4252315a489344ad30a56c3221464046abc885464736f6c634300080a0033",
    "linkReferences": {}
  }
}