{
  "abi": [
    {
      "inputs": [],
      "name": "VaultNotFound",
      "type": "error"
    },
    {
      "anonymous": false,
      "inputs": [
        {
          "components": [
            {
              "internalType": "contract ERC721",
              "name": "nftContract",
              "type": "address"
            },
            {
              "internalType": "uint256",
              "name": "tokenId",
              "type": "uint256"
            },
            {
              "internalType": "uint256",
              "name": "tokenSupply",
              "type": "uint256"
            },
            {
              "internalType": "contract NFTShare",
              "name": "tokenContract",
              "type": "address"
            }
          ],
          "indexed": false,
          "internalType": "struct LilFractional.Vault",
          "name": "vault",
          "type": "tuple"
        }
      ],
      "name": "VaultCreated",
      "type": "event"
    },
    {
      "anonymous": false,
      "inputs": [
        {
          "components": [
            {
              "internalType": "contract ERC721",
              "name": "nftContract",
              "type": "address"
            },
            {
              "internalType": "uint256",
              "name": "tokenId",
              "type": "uint256"
            },
            {
              "internalType": "uint256",
              "name": "tokenSupply",
              "type": "uint256"
            },
            {
              "internalType": "contract NFTShare",
              "name": "tokenContract",
              "type": "address"
            }
          ],
          "indexed": false,
          "internalType": "struct LilFractional.Vault",
          "name": "vault",
          "type": "tuple"
        }
      ],
      "name": "VaultDestroyed",
      "type": "event"
    },
    {
      "inputs": [
        {
          "internalType": "uint256",
          "name": "",
          "type": "uint256"
        }
      ],
      "name": "getVault",
      "outputs": [
        {
          "internalType": "contract ERC721",
          "name": "nftContract",
          "type": "address"
        },
        {
          "internalType": "uint256",
          "name": "tokenId",
          "type": "uint256"
        },
        {
          "internalType": "uint256",
          "name": "tokenSupply",
          "type": "uint256"
        },
        {
          "internalType": "contract NFTShare",
          "name": "tokenContract",
          "type": "address"
        }
      ],
      "stateMutability": "view",
      "type": "function"
    },
    {
      "inputs": [
        {
          "internalType": "uint256",
          "name": "vaultId",
          "type": "uint256"
        }
      ],
      "name": "join",
      "outputs": [],
      "stateMutability": "payable",
      "type": "function"
    },
    {
      "inputs": [
        {
          "internalType": "address",
          "name": "",
          "type": "address"
        },
        {
          "internalType": "address",
          "name": "",
          "type": "address"
        },
        {
          "internalType": "uint256",
          "name": "",
          "type": "uint256"
        },
        {
          "internalType": "bytes",
          "name": "",
          "type": "bytes"
        }
      ],
      "name": "onERC721Received",
      "outputs": [
        {
          "internalType": "bytes4",
          "name": "",
          "type": "bytes4"
        }
      ],
      "stateMutability": "payable",
      "type": "function"
    },
    {
      "inputs": [
        {
          "internalType": "contract ERC721",
          "name": "nftContract",
          "type": "address"
        },
        {
          "internalType": "uint256",
          "name": "tokenId",
          "type": "uint256"
        },
        {
          "internalType": "uint256",
          "name": "supply",
          "type": "uint256"
        },
        {
          "internalType": "string",
          "name": "name",
          "type": "string"
        },
        {
          "internalType": "string",
          "name": "symbol",
          "type": "string"
        }
      ],
      "name": "split",
      "outputs": [
        {
          "internalType": "uint256",
          "name": "",
          "type": "uint256"
        }
      ],
      "stateMutability": "payable",
      "type": "function"
    }
  ],
  "bytecode": {
    "object": "0x6080604052600160005534801561001557600080fd5b5061187e806100256000396000f3fe608060405260043610620000445760003560e01c8063049878f31462000049578063150b7a0214620000625780639403b63414620000a1578063cf6a4d161462000125575b600080fd5b620000606200005a3660046200047f565b6200014b565b005b620000836200007336600462000545565b630a85bd0160e11b949350505050565b6040516001600160e01b031990911681526020015b60405180910390f35b348015620000ae57600080fd5b50620000f5620000c03660046200047f565b600160208190526000918252604090912080549181015460028201546003909201546001600160a01b03938416939192911684565b604080516001600160a01b0395861681526020810194909452830191909152909116606082015260800162000098565b6200013c62000136366004620005f8565b620002d1565b60405190815260200162000098565b600081815260016020818152604092839020835160808101855281546001600160a01b03908116825293820154928101929092526002810154938201939093526003909201541660608201819052620001b75760405163dee790fb60e01b815260040160405180910390fd5b600082815260016020819052604080832080546001600160a01b031990811682559281018490556002810193909355600390920180549091169055606082015182820151915163079cc67960e41b815233600482015260248101929092526001600160a01b0316906379cc679090604401600060405180830381600087803b1580156200024357600080fd5b505af115801562000258573d6000803e3d6000fd5b5050825160208401516040516323b872dd60e01b815230600482015233602482015260448101919091526001600160a01b0390911692506323b872dd9150606401600060405180830381600087803b158015620002b457600080fd5b505af1158015620002c9573d6000803e3d6000fd5b505050505050565b60008083838633604051620002e69062000471565b620002f59493929190620006db565b604051809103906000f08015801562000312573d6000803e3d6000fd5b5060408051608080820183526001600160a01b03808c1680845260208085018d81528587018d81528489166060808901918252895195865292519385019390935251968301969096525190911693810193909352929350917f2d35c27b22fcea532e2e6ce89cdda1b4734be07b3a7b45e5022730144b0118bc910160405180910390a160008054815260016020818152604092839020845181546001600160a01b03199081166001600160a01b03928316178355928601519382019390935584840151600282015560608501516003909101805490921690831617905590516323b872dd60e01b815233600482015230602482015260448101899052908916906323b872dd90606401600060405180830381600087803b1580156200043657600080fd5b505af11580156200044b573d6000803e3d6000fd5b5050600080549250905080620004618362000726565b9091555098975050505050505050565b6110f8806200075183390190565b6000602082840312156200049257600080fd5b5035919050565b6001600160a01b0381168114620004af57600080fd5b50565b634e487b7160e01b600052604160045260246000fd5b600067ffffffffffffffff80841115620004e657620004e6620004b2565b604051601f8501601f19908116603f01168101908282118183101715620005115762000511620004b2565b816040528093508581528686860111156200052b57600080fd5b858560208301376000602087830101525050509392505050565b600080600080608085870312156200055c57600080fd5b8435620005698162000499565b935060208501356200057b8162000499565b925060408501359150606085013567ffffffffffffffff8111156200059f57600080fd5b8501601f81018713620005b157600080fd5b620005c287823560208401620004c8565b91505092959194509250565b600082601f830112620005e057600080fd5b620005f183833560208501620004c8565b9392505050565b600080600080600060a086880312156200061157600080fd5b85356200061e8162000499565b94506020860135935060408601359250606086013567ffffffffffffffff808211156200064a57600080fd5b6200065889838a01620005ce565b935060808801359150808211156200066f57600080fd5b506200067e88828901620005ce565b9150509295509295909350565b6000815180845260005b81811015620006b35760208185018101518683018201520162000695565b81811115620006c6576000602083870101525b50601f01601f19169290920160200192915050565b608081526000620006f060808301876200068b565b82810360208401526200070481876200068b565b604084019590955250506001600160a01b039190911660609091015292915050565b60006000198214156200074957634e487b7160e01b600052601160045260246000fd5b506001019056fe60e0604052604051620010f8380380620010f8833981016040819052620000269162000308565b8383601282600090805190602001906200004292919062000195565b5081516200005890600190602085019062000195565b5060ff81166080524660a0526200006e6200008c565b60c052506200008291508290508362000128565b50505050620004a5565b60007f8b73c3c69bb8fe3d512ecc4cf759cc79239f7b179b0ffacaa9a75d522b39400f6000604051620000c09190620003da565b6040805191829003822060208301939093528101919091527fc89efdaa54c0f20c7adf612882df0950f5a951637e0307cdcb4c672f298b8bc660608201524660808201523060a082015260c00160405160208183030381529060405280519060200120905090565b80600260008282546200013c91906200047e565b90915550506001600160a01b0382166000818152600360209081526040808320805486019055518481527fddf252ad1be2c89b69c2b068fc378daa952ba7f163c4a11628f55a4df523b3ef910160405180910390a35050565b828054620001a3906200039d565b90600052602060002090601f016020900481019282620001c7576000855562000212565b82601f10620001e257805160ff191683800117855562000212565b8280016001018555821562000212579182015b8281111562000212578251825591602001919060010190620001f5565b506200022092915062000224565b5090565b5b8082111562000220576000815560010162000225565b634e487b7160e01b600052604160045260246000fd5b600082601f8301126200026357600080fd5b81516001600160401b03808211156200028057620002806200023b565b604051601f8301601f19908116603f01168101908282118183101715620002ab57620002ab6200023b565b81604052838152602092508683858801011115620002c857600080fd5b600091505b83821015620002ec5785820183015181830184015290820190620002cd565b83821115620002fe5760008385830101525b9695505050505050565b600080600080608085870312156200031f57600080fd5b84516001600160401b03808211156200033757600080fd5b620003458883890162000251565b955060208701519150808211156200035c57600080fd5b506200036b8782880162000251565b60408701516060880151919550935090506001600160a01b03811681146200039257600080fd5b939692955090935050565b600181811c90821680620003b257607f821691505b60208210811415620003d457634e487b7160e01b600052602260045260246000fd5b50919050565b600080835481600182811c915080831680620003f757607f831692505b60208084108214156200041857634e487b7160e01b86526022600452602486fd5b8180156200042f5760018114620004415762000470565b60ff1986168952848901965062000470565b60008a81526020902060005b86811015620004685781548b8201529085019083016200044d565b505084890196505b509498975050505050505050565b60008219821115620004a057634e487b7160e01b600052601160045260246000fd5b500190565b60805160a05160c051610c23620004d560003960006104e2015260006104ad015260006101780152610c236000f3fe6080604052600436106100c25760003560e01c806370a082311161007f57806395d89b411161005957806395d89b4114610230578063a9059cbb14610245578063d505accf14610265578063dd62ed3e1461028557600080fd5b806370a08231146101c157806379cc6790146101ee5780637ecebe001461020357600080fd5b806306fdde03146100c7578063095ea7b3146100f257806318160ddd1461012257806323b872dd14610146578063313ce567146101665780633644e515146101ac575b600080fd5b3480156100d357600080fd5b506100dc6102bd565b6040516100e99190610952565b60405180910390f35b3480156100fe57600080fd5b5061011261010d3660046109c3565b61034b565b60405190151581526020016100e9565b34801561012e57600080fd5b5061013860025481565b6040519081526020016100e9565b34801561015257600080fd5b506101126101613660046109ed565b6103b7565b34801561017257600080fd5b5061019a7f000000000000000000000000000000000000000000000000000000000000000081565b60405160ff90911681526020016100e9565b3480156101b857600080fd5b506101386104a9565b3480156101cd57600080fd5b506101386101dc366004610a29565b60036020526000908152604090205481565b6102016101fc3660046109c3565b610504565b005b34801561020f57600080fd5b5061013861021e366004610a29565b60056020526000908152604090205481565b34801561023c57600080fd5b506100dc61056f565b34801561025157600080fd5b506101126102603660046109c3565b61057c565b34801561027157600080fd5b50610201610280366004610a4b565b6105f4565b34801561029157600080fd5b506101386102a0366004610abe565b600460209081526000928352604080842090915290825290205481565b600080546102ca90610af1565b80601f01602080910402602001604051908101604052809291908181526020018280546102f690610af1565b80156103435780601f1061031857610100808354040283529160200191610343565b820191906000526020600020905b81548152906001019060200180831161032657829003601f168201915b505050505081565b3360008181526004602090815260408083206001600160a01b038716808552925280832085905551919290917f8c5be1e5ebec7d5bd14f71427d1e84f3dd0314c0f7b2291e5b200ac8c7c3b925906103a69086815260200190565b60405180910390a350600192915050565b6001600160a01b03831660009081526004602090815260408083203384529091528120546000198114610413576103ee8382610b2c565b6001600160a01b03861660009081526004602090815260408083203384529091529020555b6001600160a01b0385166000908152600360205260408120805485929061043b908490610b2c565b90915550506001600160a01b03808516600081815260036020526040908190208054870190555190918716907fddf252ad1be2c89b69c2b068fc378daa952ba7f163c4a11628f55a4df523b3ef906104969087815260200190565b60405180910390a3506001949350505050565b60007f000000000000000000000000000000000000000000000000000000000000000046146104df576104da61083d565b905090565b507f000000000000000000000000000000000000000000000000000000000000000090565b6001600160a01b038216600090815260046020908152604080832033845290915290205460001981146105605761053b8282610b2c565b6001600160a01b03841660009081526004602090815260408083203384529091529020555b61056a83836108d7565b505050565b600180546102ca90610af1565b3360009081526003602052604081208054839190839061059d908490610b2c565b90915550506001600160a01b038316600081815260036020526040908190208054850190555133907fddf252ad1be2c89b69c2b068fc378daa952ba7f163c4a11628f55a4df523b3ef906103a69086815260200190565b428410156106495760405162461bcd60e51b815260206004820152601760248201527f5045524d49545f444541444c494e455f4558504952454400000000000000000060448201526064015b60405180910390fd5b600060016106556104a9565b6001600160a01b038a811660008181526005602090815260409182902080546001810190915582517f6e71edae12b1b97f4d1f60370fef10105fa2faae0126114a169c64845d6126c98184015280840194909452938d166060840152608083018c905260a083019390935260c08083018b90528151808403909101815260e08301909152805192019190912061190160f01b6101008301526101028201929092526101228101919091526101420160408051601f198184030181528282528051602091820120600084529083018083525260ff871690820152606081018590526080810184905260a0016020604051602081039080840390855afa158015610761573d6000803e3d6000fd5b5050604051601f1901519150506001600160a01b038116158015906107975750876001600160a01b0316816001600160a01b0316145b6107d45760405162461bcd60e51b815260206004820152600e60248201526d24a72b20a624a22fa9a4a3a722a960911b6044820152606401610640565b6001600160a01b0390811660009081526004602090815260408083208a8516808552908352928190208990555188815291928a16917f8c5be1e5ebec7d5bd14f71427d1e84f3dd0314c0f7b2291e5b200ac8c7c3b925910160405180910390a350505050505050565b60007f8b73c3c69bb8fe3d512ecc4cf759cc79239f7b179b0ffacaa9a75d522b39400f600060405161086f9190610b51565b6040805191829003822060208301939093528101919091527fc89efdaa54c0f20c7adf612882df0950f5a951637e0307cdcb4c672f298b8bc660608201524660808201523060a082015260c00160405160208183030381529060405280519060200120905090565b6001600160a01b038216600090815260036020526040812080548392906108ff908490610b2c565b90915550506002805482900390556040518181526000906001600160a01b038416907fddf252ad1be2c89b69c2b068fc378daa952ba7f163c4a11628f55a4df523b3ef9060200160405180910390a35050565b600060208083528351808285015260005b8181101561097f57858101830151858201604001528201610963565b81811115610991576000604083870101525b50601f01601f1916929092016040019392505050565b80356001600160a01b03811681146109be57600080fd5b919050565b600080604083850312156109d657600080fd5b6109df836109a7565b946020939093013593505050565b600080600060608486031215610a0257600080fd5b610a0b846109a7565b9250610a19602085016109a7565b9150604084013590509250925092565b600060208284031215610a3b57600080fd5b610a44826109a7565b9392505050565b600080600080600080600060e0888a031215610a6657600080fd5b610a6f886109a7565b9650610a7d602089016109a7565b95506040880135945060608801359350608088013560ff81168114610aa157600080fd5b9699959850939692959460a0840135945060c09093013592915050565b60008060408385031215610ad157600080fd5b610ada836109a7565b9150610ae8602084016109a7565b90509250929050565b600181811c90821680610b0557607f821691505b60208210811415610b2657634e487b7160e01b600052602260045260246000fd5b50919050565b600082821015610b4c57634e487b7160e01b600052601160045260246000fd5b500390565b600080835481600182811c915080831680610b6d57607f831692505b6020808410821415610b8d57634e487b7160e01b86526022600452602486fd5b818015610ba15760018114610bb257610bdf565b60ff19861689528489019650610bdf565b60008a81526020902060005b86811015610bd75781548b820152908501908301610bbe565b505084890196505b50949897505050505050505056fea26469706673582212201845fc9509405b78de7280fc0e3d50556fc343fb70cb7435cf34dcea5ef4c23264736f6c634300080a0033a264697066735822122035038adb7330697c906d51162d4c431c1a0a54130446b3603ca6b46012e9cdda64736f6c634300080a0033",
    "linkReferences": {}
  }
}